{
  "contractName": "RockPaperScissor",
  "abi": [
    {
      "constant": true,
      "inputs": [
        {
          "internalType": "address",
          "name": "",
          "type": "address"
        }
      ],
      "name": "balances",
      "outputs": [
        {
          "internalType": "uint256",
          "name": "",
          "type": "uint256"
        }
      ],
      "payable": false,
      "stateMutability": "view",
      "type": "function"
    },
    {
      "constant": true,
      "inputs": [
        {
          "internalType": "uint256",
          "name": "",
          "type": "uint256"
        }
      ],
      "name": "currentGames",
      "outputs": [
        {
          "internalType": "address",
          "name": "player1",
          "type": "address"
        },
        {
          "internalType": "address",
          "name": "player2",
          "type": "address"
        },
        {
          "internalType": "uint256",
          "name": "stake",
          "type": "uint256"
        },
        {
          "internalType": "address",
          "name": "winner",
          "type": "address"
        }
      ],
      "payable": false,
      "stateMutability": "view",
      "type": "function"
    },
    {
      "constant": true,
      "inputs": [
        {
          "internalType": "address",
          "name": "",
          "type": "address"
        }
      ],
      "name": "playersInAGame",
      "outputs": [
        {
          "internalType": "address",
          "name": "player1",
          "type": "address"
        },
        {
          "internalType": "address",
          "name": "player2",
          "type": "address"
        },
        {
          "internalType": "uint256",
          "name": "stake",
          "type": "uint256"
        },
        {
          "internalType": "address",
          "name": "winner",
          "type": "address"
        }
      ],
      "payable": false,
      "stateMutability": "view",
      "type": "function"
    },
    {
      "constant": true,
      "inputs": [
        {
          "internalType": "address",
          "name": "",
          "type": "address"
        }
      ],
      "name": "playersOpenForChallenge",
      "outputs": [
        {
          "internalType": "bool",
          "name": "",
          "type": "bool"
        }
      ],
      "payable": false,
      "stateMutability": "view",
      "type": "function"
    },
    {
      "constant": false,
      "inputs": [],
      "name": "createGame",
      "outputs": [],
      "payable": false,
      "stateMutability": "nonpayable",
      "type": "function"
    },
    {
      "constant": false,
      "inputs": [
        {
          "internalType": "address",
          "name": "otherPlayer",
          "type": "address"
        }
      ],
      "name": "joinGame",
      "outputs": [],
      "payable": false,
      "stateMutability": "nonpayable",
      "type": "function"
    },
    {
      "constant": false,
      "inputs": [
        {
          "internalType": "enum RockPaperScissor.Action",
          "name": "action",
          "type": "uint8"
        }
      ],
      "name": "makeAction",
      "outputs": [],
      "payable": false,
      "stateMutability": "nonpayable",
      "type": "function"
    },
    {
      "constant": true,
      "inputs": [
        {
          "internalType": "address",
          "name": "player",
          "type": "address"
        }
      ],
      "name": "getPlayerAction",
      "outputs": [
        {
          "internalType": "enum RockPaperScissor.Action",
          "name": "",
          "type": "uint8"
        }
      ],
      "payable": false,
      "stateMutability": "view",
      "type": "function"
    }
  ],
  "bytecode": "0x608060405234801561001057600080fd5b50611d69806100206000396000f3fe608060405234801561001057600080fd5b50600436106100885760003560e01c80637255d7291161005b5780637255d7291461027657806378cee99d14610280578063a7c2f196146102e6578063c2bbcc7d1461031757610088565b8063046b835f1461008d5780632389a290146100e957806327e235e31461012d5780636a3e0a0814610185575b600080fd5b6100cf600480360360208110156100a357600080fd5b81019080803573ffffffffffffffffffffffffffffffffffffffff1690602001909291905050506103f2565b604051808215151515815260200191505060405180910390f35b61012b600480360360208110156100ff57600080fd5b81019080803573ffffffffffffffffffffffffffffffffffffffff169060200190929190505050610412565b005b61016f6004803603602081101561014357600080fd5b81019080803573ffffffffffffffffffffffffffffffffffffffff169060200190929190505050610a62565b6040518082815260200191505060405180910390f35b6101c76004803603602081101561019b57600080fd5b81019080803573ffffffffffffffffffffffffffffffffffffffff169060200190929190505050610a7a565b604051808573ffffffffffffffffffffffffffffffffffffffff1673ffffffffffffffffffffffffffffffffffffffff1681526020018473ffffffffffffffffffffffffffffffffffffffff1673ffffffffffffffffffffffffffffffffffffffff1681526020018381526020018273ffffffffffffffffffffffffffffffffffffffff1673ffffffffffffffffffffffffffffffffffffffff16815260200194505050505060405180910390f35b61027e610b0a565b005b6102c26004803603602081101561029657600080fd5b81019080803573ffffffffffffffffffffffffffffffffffffffff169060200190929190505050610e4e565b604051808260038111156102d257fe5b60ff16815260200191505060405180910390f35b610315600480360360208110156102fc57600080fd5b81019080803560ff169060200190929190505050610ee4565b005b6103436004803603602081101561032d57600080fd5b8101908080359060200190929190505050611678565b604051808573ffffffffffffffffffffffffffffffffffffffff1673ffffffffffffffffffffffffffffffffffffffff1681526020018473ffffffffffffffffffffffffffffffffffffffff1673ffffffffffffffffffffffffffffffffffffffff1681526020018381526020018273ffffffffffffffffffffffffffffffffffffffff1673ffffffffffffffffffffffffffffffffffffffff16815260200194505050505060405180910390f35b60006020528060005260406000206000915054906101000a900460ff1681565b61041a611c53565b600160003373ffffffffffffffffffffffffffffffffffffffff1673ffffffffffffffffffffffffffffffffffffffff1681526020019081526020016000206040518060800160405290816000820160009054906101000a900473ffffffffffffffffffffffffffffffffffffffff1673ffffffffffffffffffffffffffffffffffffffff1673ffffffffffffffffffffffffffffffffffffffff1681526020016001820160009054906101000a900473ffffffffffffffffffffffffffffffffffffffff1673ffffffffffffffffffffffffffffffffffffffff1673ffffffffffffffffffffffffffffffffffffffff168152602001600382015481526020016004820160009054906101000a900473ffffffffffffffffffffffffffffffffffffffff1673ffffffffffffffffffffffffffffffffffffffff1673ffffffffffffffffffffffffffffffffffffffff16815250509050600073ffffffffffffffffffffffffffffffffffffffff16816000015173ffffffffffffffffffffffffffffffffffffffff161480156105e25750600073ffffffffffffffffffffffffffffffffffffffff16816020015173ffffffffffffffffffffffffffffffffffffffff16145b610654576040517f08c379a000000000000000000000000000000000000000000000000000000000815260040180806020018281038252601b8152602001807f596f752061726520616c726561647920696e20612067616d652021000000000081525060200191505060405180910390fd5b600115156000808473ffffffffffffffffffffffffffffffffffffffff1673ffffffffffffffffffffffffffffffffffffffff16815260200190815260200160002060009054906101000a900460ff161515146106fc576040517f08c379a000000000000000000000000000000000000000000000000000000000815260040180806020018281038252602a815260200180611cbe602a913960400191505060405180910390fd5b60008060008473ffffffffffffffffffffffffffffffffffffffff1673ffffffffffffffffffffffffffffffffffffffff16815260200190815260200160002060006101000a81548160ff02191690831515021790555060008060003373ffffffffffffffffffffffffffffffffffffffff1673ffffffffffffffffffffffffffffffffffffffff16815260200190815260200160002060006101000a81548160ff0219169083151502179055506107b2611c53565b60405180608001604052808473ffffffffffffffffffffffffffffffffffffffff1681526020013373ffffffffffffffffffffffffffffffffffffffff16815260200160008152602001600073ffffffffffffffffffffffffffffffffffffffff16815250905080600160003373ffffffffffffffffffffffffffffffffffffffff1673ffffffffffffffffffffffffffffffffffffffff16815260200190815260200160002060008201518160000160006101000a81548173ffffffffffffffffffffffffffffffffffffffff021916908373ffffffffffffffffffffffffffffffffffffffff16021790555060208201518160010160006101000a81548173ffffffffffffffffffffffffffffffffffffffff021916908373ffffffffffffffffffffffffffffffffffffffff1602179055506040820151816003015560608201518160040160006101000a81548173ffffffffffffffffffffffffffffffffffffffff021916908373ffffffffffffffffffffffffffffffffffffffff16021790555090505080600160008573ffffffffffffffffffffffffffffffffffffffff1673ffffffffffffffffffffffffffffffffffffffff16815260200190815260200160002060008201518160000160006101000a81548173ffffffffffffffffffffffffffffffffffffffff021916908373ffffffffffffffffffffffffffffffffffffffff16021790555060208201518160010160006101000a81548173ffffffffffffffffffffffffffffffffffffffff021916908373ffffffffffffffffffffffffffffffffffffffff1602179055506040820151816003015560608201518160040160006101000a81548173ffffffffffffffffffffffffffffffffffffffff021916908373ffffffffffffffffffffffffffffffffffffffff160217905550905050505050565b60026020528060005260406000206000915090505481565b60016020528060005260406000206000915090508060000160009054906101000a900473ffffffffffffffffffffffffffffffffffffffff16908060010160009054906101000a900473ffffffffffffffffffffffffffffffffffffffff16908060030154908060040160009054906101000a900473ffffffffffffffffffffffffffffffffffffffff16905084565b610b12611c53565b600160003373ffffffffffffffffffffffffffffffffffffffff1673ffffffffffffffffffffffffffffffffffffffff1681526020019081526020016000206040518060800160405290816000820160009054906101000a900473ffffffffffffffffffffffffffffffffffffffff1673ffffffffffffffffffffffffffffffffffffffff1673ffffffffffffffffffffffffffffffffffffffff1681526020016001820160009054906101000a900473ffffffffffffffffffffffffffffffffffffffff1673ffffffffffffffffffffffffffffffffffffffff1673ffffffffffffffffffffffffffffffffffffffff168152602001600382015481526020016004820160009054906101000a900473ffffffffffffffffffffffffffffffffffffffff1673ffffffffffffffffffffffffffffffffffffffff1673ffffffffffffffffffffffffffffffffffffffff16815250509050600073ffffffffffffffffffffffffffffffffffffffff16816000015173ffffffffffffffffffffffffffffffffffffffff16148015610cda5750600073ffffffffffffffffffffffffffffffffffffffff16816020015173ffffffffffffffffffffffffffffffffffffffff16145b610d4c576040517f08c379a000000000000000000000000000000000000000000000000000000000815260040180806020018281038252601b8152602001807f596f752061726520616c726561647920696e20612067616d652021000000000081525060200191505060405180910390fd5b600015156000803373ffffffffffffffffffffffffffffffffffffffff1673ffffffffffffffffffffffffffffffffffffffff16815260200190815260200160002060009054906101000a900460ff16151514610df4576040517f08c379a0000000000000000000000000000000000000000000000000000000008152600401808060200182810382526028815260200180611d0d6028913960400191505060405180910390fd5b60016000803373ffffffffffffffffffffffffffffffffffffffff1673ffffffffffffffffffffffffffffffffffffffff16815260200190815260200160002060006101000a81548160ff02191690831515021790555050565b6000600160008373ffffffffffffffffffffffffffffffffffffffff1673ffffffffffffffffffffffffffffffffffffffff16815260200190815260200160002060020160008373ffffffffffffffffffffffffffffffffffffffff1673ffffffffffffffffffffffffffffffffffffffff16815260200190815260200160002060009054906101000a900460ff169050919050565b610eec611c53565b600160003373ffffffffffffffffffffffffffffffffffffffff1673ffffffffffffffffffffffffffffffffffffffff1681526020019081526020016000206040518060800160405290816000820160009054906101000a900473ffffffffffffffffffffffffffffffffffffffff1673ffffffffffffffffffffffffffffffffffffffff1673ffffffffffffffffffffffffffffffffffffffff1681526020016001820160009054906101000a900473ffffffffffffffffffffffffffffffffffffffff1673ffffffffffffffffffffffffffffffffffffffff1673ffffffffffffffffffffffffffffffffffffffff168152602001600382015481526020016004820160009054906101000a900473ffffffffffffffffffffffffffffffffffffffff1673ffffffffffffffffffffffffffffffffffffffff1673ffffffffffffffffffffffffffffffffffffffff168152505090503373ffffffffffffffffffffffffffffffffffffffff16816000015173ffffffffffffffffffffffffffffffffffffffff1614806110b157503373ffffffffffffffffffffffffffffffffffffffff16816020015173ffffffffffffffffffffffffffffffffffffffff16145b611123576040517f08c379a00000000000000000000000000000000000000000000000000000000081526004018080602001828103825260178152602001807f596f7520617265206e6f7420696e20612067616d65202100000000000000000081525060200191505060405180910390fd5b60003390506000600381111561113557fe5b600160008373ffffffffffffffffffffffffffffffffffffffff1673ffffffffffffffffffffffffffffffffffffffff16815260200190815260200160002060020160008373ffffffffffffffffffffffffffffffffffffffff1673ffffffffffffffffffffffffffffffffffffffff16815260200190815260200160002060009054906101000a900460ff1660038111156111cd57fe5b14611223576040517f08c379a0000000000000000000000000000000000000000000000000000000008152600401808060200182810382526025815260200180611ce86025913960400191505060405180910390fd5b6000600381111561123057fe5b83600381111561123c57fe5b141561124757600080fd5b82600160003373ffffffffffffffffffffffffffffffffffffffff1673ffffffffffffffffffffffffffffffffffffffff16815260200190815260200160002060020160003373ffffffffffffffffffffffffffffffffffffffff1673ffffffffffffffffffffffffffffffffffffffff16815260200190815260200160002060006101000a81548160ff021916908360038111156112e257fe5b021790555060006112f233611715565b90506000600160003373ffffffffffffffffffffffffffffffffffffffff1673ffffffffffffffffffffffffffffffffffffffff16815260200190815260200160002060020160008373ffffffffffffffffffffffffffffffffffffffff1673ffffffffffffffffffffffffffffffffffffffff16815260200190815260200160002060009054906101000a900460ff1690506000600381111561139257fe5b81600381111561139e57fe5b1461167157600160038111156113b057fe5b8560038111156113bc57fe5b1415611492576003808111156113ce57fe5b8160038111156113da57fe5b141561142957611428600160003373ffffffffffffffffffffffffffffffffffffffff1673ffffffffffffffffffffffffffffffffffffffff16815260200190815260200160002033611b5b565b5b6002600381111561143657fe5b81600381111561144257fe5b141561149157611490600160003373ffffffffffffffffffffffffffffffffffffffff1673ffffffffffffffffffffffffffffffffffffffff16815260200190815260200160002083611b5b565b5b5b6002600381111561149f57fe5b8560038111156114ab57fe5b141561158157600160038111156114be57fe5b8160038111156114ca57fe5b141561151957611518600160003373ffffffffffffffffffffffffffffffffffffffff1673ffffffffffffffffffffffffffffffffffffffff16815260200190815260200160002033611b5b565b5b60038081111561152557fe5b81600381111561153157fe5b14156115805761157f600160003373ffffffffffffffffffffffffffffffffffffffff1673ffffffffffffffffffffffffffffffffffffffff16815260200190815260200160002083611b5b565b5b5b60038081111561158d57fe5b85600381111561159957fe5b141561167057600260038111156115ac57fe5b8160038111156115b857fe5b141561160757611606600160003373ffffffffffffffffffffffffffffffffffffffff1673ffffffffffffffffffffffffffffffffffffffff16815260200190815260200160002033611b5b565b5b6001600381111561161457fe5b81600381111561162057fe5b141561166f5761166e600160003373ffffffffffffffffffffffffffffffffffffffff1673ffffffffffffffffffffffffffffffffffffffff16815260200190815260200160002083611b5b565b5b5b5b5050505050565b6003818154811061168557fe5b90600052602060002090600502016000915090508060000160009054906101000a900473ffffffffffffffffffffffffffffffffffffffff16908060010160009054906101000a900473ffffffffffffffffffffffffffffffffffffffff16908060030154908060040160009054906101000a900473ffffffffffffffffffffffffffffffffffffffff16905084565b600061171f611c53565b600160003373ffffffffffffffffffffffffffffffffffffffff1673ffffffffffffffffffffffffffffffffffffffff1681526020019081526020016000206040518060800160405290816000820160009054906101000a900473ffffffffffffffffffffffffffffffffffffffff1673ffffffffffffffffffffffffffffffffffffffff1673ffffffffffffffffffffffffffffffffffffffff1681526020016001820160009054906101000a900473ffffffffffffffffffffffffffffffffffffffff1673ffffffffffffffffffffffffffffffffffffffff1673ffffffffffffffffffffffffffffffffffffffff168152602001600382015481526020016004820160009054906101000a900473ffffffffffffffffffffffffffffffffffffffff1673ffffffffffffffffffffffffffffffffffffffff1673ffffffffffffffffffffffffffffffffffffffff168152505090503373ffffffffffffffffffffffffffffffffffffffff16816000015173ffffffffffffffffffffffffffffffffffffffff1614806118e457503373ffffffffffffffffffffffffffffffffffffffff16816020015173ffffffffffffffffffffffffffffffffffffffff16145b611956576040517f08c379a00000000000000000000000000000000000000000000000000000000081526004018080602001828103825260178152602001807f596f7520617265206e6f7420696e20612067616d65202100000000000000000081525060200191505060405180910390fd5b8273ffffffffffffffffffffffffffffffffffffffff16600160008573ffffffffffffffffffffffffffffffffffffffff1673ffffffffffffffffffffffffffffffffffffffff16815260200190815260200160002060000160009054906101000a900473ffffffffffffffffffffffffffffffffffffffff1673ffffffffffffffffffffffffffffffffffffffff1614611a5557600160008473ffffffffffffffffffffffffffffffffffffffff1673ffffffffffffffffffffffffffffffffffffffff16815260200190815260200160002060000160009054906101000a900473ffffffffffffffffffffffffffffffffffffffff169150611b55565b8273ffffffffffffffffffffffffffffffffffffffff16600160008573ffffffffffffffffffffffffffffffffffffffff1673ffffffffffffffffffffffffffffffffffffffff16815260200190815260200160002060010160009054906101000a900473ffffffffffffffffffffffffffffffffffffffff1673ffffffffffffffffffffffffffffffffffffffff1614611b5457600160008473ffffffffffffffffffffffffffffffffffffffff1673ffffffffffffffffffffffffffffffffffffffff16815260200190815260200160002060010160009054906101000a900473ffffffffffffffffffffffffffffffffffffffff169150611b55565b5b50919050565b600073ffffffffffffffffffffffffffffffffffffffff168260040160009054906101000a900473ffffffffffffffffffffffffffffffffffffffff1673ffffffffffffffffffffffffffffffffffffffff1614611bb857600080fd5b808260040160006101000a81548173ffffffffffffffffffffffffffffffffffffffff021916908373ffffffffffffffffffffffffffffffffffffffff1602179055506002826003015402600260008373ffffffffffffffffffffffffffffffffffffffff1673ffffffffffffffffffffffffffffffffffffffff168152602001908152602001600020600082825401925050819055505050565b6040518060800160405280600073ffffffffffffffffffffffffffffffffffffffff168152602001600073ffffffffffffffffffffffffffffffffffffffff16815260200160008152602001600073ffffffffffffffffffffffffffffffffffffffff168152509056fe5468652072657175657374656420706c6179657220646f206e6f742077616e7420746f20706c61792021596f75206861766520616c7265616479206465636964656420796f757220616374696f6e2e596f752061726520616c72656164792077616974696e6720666f722061206368616c6c656e676572a265627a7a72315820281e8d01ba642385c4cd00443fc3b3f890edc9e82760ea85f38f134773f5f94e64736f6c63430005100032",
  "source": "pragma solidity >=0.4.22 <0.9.0;\r\n\r\ncontract RockPaperScissor {\r\n\r\n    enum Action {NOT_DECIDED, ROCK, PAPER, SCISSOR}\r\n\r\n    struct Game {\r\n        address player1;\r\n        address player2;\r\n        mapping(address => Action) playersAction;\r\n        uint256 stake;\r\n        address winner;\r\n    }\r\n\r\n    mapping(address => bool) public playersOpenForChallenge;\r\n    mapping(address => Game) public playersInAGame;\r\n    mapping(address => uint256) public balances;\r\n    Game[] public currentGames;\r\n\r\n    ///\r\n    /// Modifier used to make sure\r\n    /// the requester in not currently in a game\r\n    ///\r\n    modifier notAlreadyInAGame {\r\n        Game memory game = playersInAGame[msg.sender];\r\n        require(\r\n            game.player1 == address(0) && game.player2 == address(0),\r\n            \"You are already in a game !\"\r\n            );\r\n        _;\r\n    }\r\n\r\n    modifier inAGame {\r\n        Game memory game = playersInAGame[msg.sender];\r\n        require(\r\n            game.player1 == msg.sender || game.player2 == msg.sender,\r\n            \"You are not in a game !\"\r\n            );\r\n        _;\r\n    }\r\n\r\n    modifier notAlreadyPlayed {\r\n        address sender = msg.sender;\r\n        require(\r\n            playersInAGame[sender].playersAction[sender] == Action.NOT_DECIDED,\r\n            \"You have already decided your action.\"\r\n        );\r\n        _;\r\n    }\r\n\r\n    function createGame() public notAlreadyInAGame {\r\n        require(playersOpenForChallenge[msg.sender] == false, \"You are already waiting for a challenger\");\r\n        playersOpenForChallenge[msg.sender] = true;\r\n    }\r\n\r\n    function joinGame(address otherPlayer) public notAlreadyInAGame {\r\n        require(playersOpenForChallenge[otherPlayer] == true, \"The requested player do not want to play !\");\r\n        \r\n        playersOpenForChallenge[otherPlayer] = false;\r\n        playersOpenForChallenge[msg.sender] = false;\r\n\r\n        Game memory game = Game({\r\n            player1: otherPlayer, \r\n            player2: msg.sender,\r\n            stake: 0,\r\n            winner: address(0)\r\n        });\r\n\r\n        playersInAGame[msg.sender] = game;\r\n        playersInAGame[otherPlayer] = game;\r\n    }\r\n\r\n    function makeAction(Action action) public inAGame notAlreadyPlayed {\r\n        require(action != Action.NOT_DECIDED);\r\n        playersInAGame[msg.sender].playersAction[msg.sender] = action;\r\n\r\n        // Check if the adversary played. If yes, determine the winner\r\n        address adversary = getAdversary(msg.sender);\r\n        Action adversaryAction = playersInAGame[msg.sender].playersAction[adversary];\r\n        if(adversaryAction != Action.NOT_DECIDED){\r\n            if(action == Action.ROCK) {\r\n                if(adversaryAction == Action.SCISSOR) {\r\n                    // Won\r\n                    setWinner(playersInAGame[msg.sender], msg.sender);\r\n                }\r\n                if(adversaryAction == Action.PAPER) {\r\n                    // Lost\r\n                    setWinner(playersInAGame[msg.sender], adversary);\r\n                }\r\n            }\r\n            if(action == Action.PAPER) {\r\n                if(adversaryAction == Action.ROCK) {\r\n                    // Won\r\n                    setWinner(playersInAGame[msg.sender], msg.sender);\r\n                }\r\n                if(adversaryAction == Action.SCISSOR) {\r\n                    // Lost\r\n                    setWinner(playersInAGame[msg.sender], adversary);\r\n                }\r\n            }\r\n            if(action == Action.SCISSOR) {\r\n                if(adversaryAction == Action.PAPER) {\r\n                    // Won\r\n                    setWinner(playersInAGame[msg.sender], msg.sender);\r\n                }\r\n                if(adversaryAction == Action.ROCK) {\r\n                    // Lost\r\n                    setWinner(playersInAGame[msg.sender], adversary);\r\n                }\r\n            }\r\n        }\r\n    }\r\n\r\n    function setWinner(Game storage game, address player) private {\r\n        require(game.winner == address(0));\r\n        game.winner = player;\r\n        // Transfer money to winner\r\n        balances[player] += game.stake * 2;\r\n    }\r\n\r\n    /// Get the current adversary of the\r\n    /// specified player\r\n    function getAdversary(address player) private view inAGame returns (address) {\r\n        if(playersInAGame[player].player1 != player){\r\n            return playersInAGame[player].player1;\r\n        }\r\n        if(playersInAGame[player].player2 != player){\r\n            return playersInAGame[player].player2;\r\n        }\r\n    }\r\n\r\n    function getPlayerAction(address player) public view returns (Action) {\r\n        return playersInAGame[player].playersAction[player];\r\n    }\r\n}",
  "sourcePath": "C:/Users/cleme/Documents/Programming/dapps/rock-paper-scissor/contracts/RockPaperScissor.sol",
  "compiler": {
    "name": "solc",
    "version": "0.5.16+commit.9c3226ce.Emscripten.clang"
  },
  "schemaVersion": "3.3.3",
  "updatedAt": "2021-02-20T20:41:51.542Z",
  "networkType": "ethereum",
  "devdoc": {
    "methods": {}
  },
  "userdoc": {
    "methods": {}
  }
}