{
  "contractName": "TestContract",
  "abi": [
    {
      "constant": true,
      "inputs": [],
      "name": "stateVariable",
      "outputs": [
        {
          "internalType": "uint256",
          "name": "",
          "type": "uint256"
        }
      ],
      "payable": false,
      "stateMutability": "view",
      "type": "function"
    },
    {
      "constant": true,
      "inputs": [],
      "name": "getBalance",
      "outputs": [
        {
          "internalType": "uint256",
          "name": "balance",
          "type": "uint256"
        }
      ],
      "payable": false,
      "stateMutability": "view",
      "type": "function"
    }
  ],
  "bytecode": "0x6080604052600560005534801561001557600080fd5b5060b2806100246000396000f3fe6080604052348015600f57600080fd5b506004361060325760003560e01c806312065fe0146037578063e1967eae146053575b600080fd5b603d606f565b6040518082815260200191505060405180910390f35b60596077565b6040518082815260200191505060405180910390f35b600047905090565b6000548156fea265627a7a723158204ce21b098448e7b4e4a20dd6c5f0cc95f96f6b13714b92c76a65d629243b52ce64736f6c63430005100032",
  "source": "pragma solidity >=0.4.22 <0.9.0;\r\n\r\ncontract TestContract {\r\n    uint public stateVariable = 5;\r\n\r\n    function getBalance() public view returns (uint256 balance) {\r\n        return address(this).balance;\r\n    }\r\n}",
  "sourcePath": "C:/Users/cleme/Documents/Programming/dapps/tests/contracts/TestContract.sol",
  "compiler": {
    "name": "solc",
    "version": "0.5.16+commit.9c3226ce.Emscripten.clang"
  },
  "schemaVersion": "3.3.3",
  "updatedAt": "2021-02-17T22:15:21.503Z",
  "networkType": "ethereum",
  "devdoc": {
    "methods": {}
  },
  "userdoc": {
    "methods": {}
  }
}